:100000000C94E3000C9414010C9414010C9414014E
:100010000C9414010C9414010C9414010C9414010C
:100020000C9414010C9414010C9414010C941401FC
:100030000C9414010C9414010C9414010C941401EC
:100040000C9414010C9414010C9414010C941401DC
:100050000C9414010C9414010C9414010C94FB02E4
:100060000C9414010C94C5020C949B020C94140182
:100070000C9414010C9414010C9414010C941401AC
:100080000C9414010C9414010C9414010C9414019C
:100090000C9414010C9414010C9414010C9414018C
:1000A0000C9414010C9414010C9414010C9414017C
:1000B0000C9414010C9414010C9414010C9414016C
:1000C0000C9414010C9414010C9414010C9414015C
:1000D0000C9414010C9414010C9414010C9414014C
:1000E0000C9414010C9466010C9452010C9474014C
:1000F0000C94F9010C9443010C94AC010C94300560
:100100000C94160100002200250028002B002E0070
:100110003100340002010000050108010B0100005C
:100120002100240027002A002D00300033000101A7
:100130000000040107010A01050505050705080877
:100140000808020202020A0A080804040404010161
:100150000101010101010303030303030303040776
:1001600007070C0C0C0C0C0C0C0C0202020206060D
:100170000606060606060B0B0B0B0B0B0B0B010200
:1001800010202008081020401020408002010201A9
:100190000804020101020408102040808040201061
:1001A00008040201800402018040201008040201BA
:1001B0000804020101020408102040800102040822
:1001C00010204080300511241FBECFEFD1E2DEBFEA
:1001D000CDBF00E00CBF12E0A0E0B2E0EAE8FFE033
:1001E00000E00BBF02C007900D92AA32B107D9F709
:1001F00022E0AAE2B2E001C01D92A03DB207E1F701
:1002000010E0C3EED0E000E006C021970109802F86
:10021000FE010E94BB07C23ED10780E00807A9F794
:100220000E9445030C94C3070C940000AF92BF9248
:10023000CF92DF92EF92FF920F931F93CF93DF93B2
:100240006C017B018B01040F151FEB015E01AE18E1
:10025000BF08C017D10759F06991D601ED91FC9103
:100260000190F081E02DC6011995892B79F7C50120
:10027000DF91CF911F910F91FF90EF90DF90CF9082
:10028000BF90AF900895FC01538D448D252F30E031
:10029000842F90E0821B930B541710F0CF96089593
:1002A00001970895FC01918D828D981761F0A28DC0
:1002B000AE0FBF2FB11D5D968C91928D9F5F9F7386
:1002C000928F90E008958FEF9FEF0895FC01918D3C
:1002D000828D981731F0828DE80FF11D858D90E0A9
:1002E00008958FEF9FEF0895FC01918D228D892F46
:1002F00090E0805C9F4F821B91098F73992708952E
:1003000083E392E00E94740121E0892B09F420E04C
:10031000822F0895FC01A48DA80FB92FB11DA35AF7
:10032000BF4F2C91848D90E001968F739927848F15
:10033000A689B7892C93A089B1898C918370806438
:100340008C93938D848D981306C00288F389E02DD9
:1003500080818F7D80830895EF92FF920F931F938A
:10036000CF93DF93EC0181E0888F9B8D8C8D981368
:100370001AC0E889F989808185FF15C09FB7F89474
:10038000EE89FF896083E889F989808183708064C0
:1003900080839FBF81E090E0DF91CF911F910F910B
:1003A000FF90EF900895F62E0B8D10E00F5F1F4F1A
:1003B0000F731127E02E8C8D8E110CC00FB607FC29
:1003C000FACFE889F989808185FFF5CFCE010E94B7
:1003D0008A01F1CFEB8DEC0FFD2FF11DE35AFF4F9A
:1003E000F0829FB7F8940B8FEA89FB898081806245
:1003F000CFCFCF93DF93EC01888D8823B9F0AA8902
:10040000BB89E889F9898C9185FD03C0808186FDCF
:100410000DC00FB607FCF7CF8C9185FFF2CF80811E
:1004200085FFEDCFCE010E948A01E9CFDF91CF9108
:10043000089580E090E0892B29F00E9480018111CD
:100440000E94000080E090E0892B49F080E090E07D
:10045000892B29F00E94000081110E94000080E099
:1004600090E0892B49F080E090E0892B29F00E94F0
:10047000000081110E94000080E090E0892B49F08B
:1004800080E090E0892B29F00E94000081110C94FB
:1004900000000895FC0101900020E9F73197AF01B9
:1004A000481B590BBC0183E392E00C9416018F9218
:1004B0009F92AF92BF920F931F93CF93DF93CDB7CD
:1004C000DEB7A1970FB6F894DEBF0FBECDBF19A25D
:1004D000423008F44AE08E010F5D1F4F842E912CAC
:1004E000B12CA12CA50194010E949907E62FB90116
:1004F000CA01EA30F4F4E05DD801EE938D01232BBC
:10050000242B252B79F790E080E0109719F0CD018E
:100510000E944A02A1960FB6F894DEBF0FBECDBF6F
:10052000DF91CF911F910F91BF90AF909F908F90CF
:100530000895E95CE1CF1F920F920FB60F9211243C
:100540000BB60F922F933F934F935F936F937F93CD
:100550008F939F93AF93BF93EF93FF9383E392E0C7
:100560000E948A01FF91EF91BF91AF919F918F916E
:100570007F916F915F914F913F912F910F900BBEA3
:100580000F900FBE0F901F9018951F920F920FB6ED
:100590000F9211240BB60F922F938F939F93EF938B
:1005A000FF93E0914302F09144028081E09149027F
:1005B000F0914A0282FD1DC0908180914C028F5FB4
:1005C0008F7320914D02821741F0E0914C02F0E0D0
:1005D000ED5CFD4F958F80934C02FF91EF919F91C1
:1005E0008F912F910F900BBE0F900FBE0F901F9009
:1005F00018958081F2CF1F920F920FB60F9211249F
:100600002F933F938F939F93AF93BF9380912F022C
:1006100090913002A0913102B091320230912E02BD
:1006200023E0230F2D3758F50196A11DB11D20930E
:100630002E0280932F0290933002A0933102B09348
:10064000320280912A0290912B02A0912C02B0914B
:100650002D020196A11DB11D80932A0290932B02B9
:10066000A0932C02B0932D02BF91AF919F918F91D7
:100670003F912F910F900FBE0F901F90189526E875
:10068000230F0296A11DB11DD2CF789484B582604C
:1006900084BD84B5816084BD85B5826085BD85B526
:1006A000816085BD80916E00816080936E001092A4
:1006B000810080918100826080938100809181001F
:1006C00081608093810080918000816080938000B0
:1006D0008091B10084608093B1008091B00081600E
:1006E0008093B0008091910082608093910080910E
:1006F000910081608093910080919000816080934F
:1007000090008091A10082608093A1008091A1005F
:1007100081608093A1008091A00081608093A000FF
:10072000809121018260809321018091210181606B
:10073000809321018091200181608093200180912C
:100740007A00846080937A0080917A00826080933E
:100750007A0080917A00816080937A0080917A009B
:10076000806880937A001092C100E0914302F0917A
:10077000440282E08083E0913F02F09140021082C7
:10078000E0914102F09142028FEC808310924B0283
:10079000E0914702F091480286E08083E0914502B3
:1007A000F0914602808180618083E0914502F09162
:1007B0004602808188608083E0914502F091460284
:1007C000808180688083E0914502F09146028081BB
:1007D0008F7D80832AE132E0A2E1B2E08D9190E04A
:1007E000FC01E258FE4F4491885C9E4FFC018491CD
:1007F0008823C9F090E0880F991FFC01E25EFE4F4C
:10080000C591D491FC01EC5FFE4F659174919FB747
:10081000F8948881E42FE0958E238883EB0188810A
:10082000E823E8839FBF2A173B07C1F6C2E1D2E065
:10083000812C912C5401412C512C3201F12CE12CB2
:100840008991863308F0865320917B00982F987009
:10085000277F922B90937B008770806480937C002D
:1008600080917A00806480937A0080917A0086FD7E
:10087000FCCF90917800809179008927982789276B
:10088000092E000CAA0BBB0B85389340A105B105BE
:1008900000F1B7010F2C000C880B990B0E94720617
:1008A00025E239E442E95EE30E94270720E030E0D8
:1008B00040E85FE30E945D059B01AC01C301B2010A
:1008C0000E945E052B013C01FFEF8F1A9F0AAF0AC1
:1008D000BF0A2FEFE21AF20A88E0E816F10409F0E5
:1008E000AFCF60E070E0CB0181149104A104B104AA
:1008F00051F0C501B4010E9470069B01AC01C30117
:10090000B2010E94CF0520E030E040E251E40E94B5
:1009100027076B017C014B015C01AC019B010E942C
:100920009407882349F08AE192E00E944A0286E215
:1009300092E00E944A027ACF26013701E89477F8C4
:100940002FEF3FEF4FE75FE7C301B2010E9494072B
:1009500081110DC02FEF3FEF4FE75FE7C301B201F9
:100960000E94CA0518161CF48EE192E0DECF2FEF2C
:100970003FEF4FE75FE4C701B6010E942207181658
:100980001CF482E292E0D1CF2FEF3FEF4FE75FEC14
:10099000C701B6010E94CA0587FDF3CF20E030E011
:1009A000A901C701B6010E94CA0587FF0BC06DE20D
:1009B00083E392E00E94AC0146015701B7FAB0947C
:1009C000B7F8B0942AE037ED43EA5BE3C501B40120
:1009D0000E945E054B015C010E9441066B017C0197
:1009E0000E9470069B01AC01C501B4010E945D0527
:1009F0004B015C014AE0C701B6010E9457026EE25A
:100A000083E392E00E94AC0120E030E040E251E458
:100A1000C501B4010E9427074B015C010E944106F9
:100A20006B01F12CE12C4AE0C701B6010E9457028C
:100A3000C701B6010E9470069B01AC01C501B4015B
:100A40000E945D0520E030E040E251E40E9427076B
:100A50000E94410690E080E04AE00E94570267CF82
:100A6000E3E3F2E01382128288EE93E0A0E0B0E0CC
:100A700084839583A683B78384E092E09183808307
:100A800085EC90E09587848784EC90E09787868753
:100A900080EC90E0918B808B81EC90E0938B828B4B
:100AA00082EC90E0958B848B86EC90E0978B868B24
:100AB000118E128E138E148E08955058BB27AA27BC
:100AC0000E9475050C94E8060E94DA0638F00E9430
:100AD000E10620F039F49F3F19F426F40C94D70670
:100AE0000EF4E095E7FB0C94D106E92F0E94F9067D
:100AF00058F3BA17620773078407950720F079F453
:100B0000A6F50C941B070EF4E0950B2EBA2FA02D22
:100B10000B01B90190010C01CA01A0011124FF27AA
:100B2000591B99F0593F50F4503E68F11A16F040A5
:100B3000A22F232F342F4427585FF3CF46953795A4
:100B40002795A795F0405395C9F77EF41F16BA0B69
:100B5000620B730B840BBAF09150A1F0FF0FBB1F17
:100B6000661F771F881FC2F70EC0BA0F621F731F60
:100B7000841F48F4879577956795B795F7959E3FBD
:100B800008F0B0CF9395880F08F09927EE0F97954E
:100B9000879508950E94AD0608F481E008950E94AB
:100BA000E3050C94E8060E94E10658F00E94DA067C
:100BB00040F029F45F3F29F00C94D10651110C94B8
:100BC0001C070C94D7060E94F90668F39923B1F329
:100BD000552391F3951B550BBB27AA276217730763
:100BE000840738F09F5F5F4F220F331F441FAA1FF7
:100BF000A9F335D00E2E3AF0E0E832D091505040B3
:100C0000E695001CCAF72BD0FE2F29D0660F771F60
:100C1000881FBB1F261737074807AB07B0E809F046
:100C2000BB0B802DBF01FF2793585F4F3AF09E3FCB
:100C3000510578F00C94D1060C941C075F3FE4F347
:100C4000983ED4F3869577956795B795F7959F5F0E
:100C5000C9F7880F911D9695879597F90895E1E05A
:100C6000660F771F881FBB1F621773078407BA07B9
:100C700020F0621B730B840BBA0BEE1F88F7E09514
:100C800008950E94010788F09F5798F0B92F99277F
:100C9000B751B0F0E1F0660F771F881F991F1AF067
:100CA000BA95C9F714C0B13091F00E941B07B1E0AA
:100CB00008950C941B07672F782F8827B85F39F0A9
:100CC000B93FCCF3869577956795B395D9F73EF400
:100CD00090958095709561957F4F8F4F9F4F0895A8
:100CE000E89409C097FB3EF49095809570956195C6
:100CF0007F4F8F4F9F4F9923A9F0F92F96E9BB277C
:100D00009395F695879577956795B795F111F8CFF7
:100D1000FAF4BB0F11F460FF1BC06F5F7F4F8F4F62
:100D20009F4F16C0882311F096E911C0772321F058
:100D30009EE8872F762F05C0662371F096E8862FF0
:100D400070E060E02AF09A95660F771F881FDAF747
:100D5000880F9695879597F90895990F0008550F74
:100D6000AA0BE0E8FEEF16161706E807F907C0F031
:100D700012161306E407F50798F0621B730B840B39
:100D8000950B39F40A2661F0232B242B252B21F413
:100D900008950A2609F4A140A6958FEF811D811DB3
:100DA000089597F99F6780E870E060E008959FEFED
:100DB00080EC089500240A941616170618060906F2
:100DC000089500240A9412161306140605060895C1
:100DD000092E0394000C11F4882352F0BB0F40F449
:100DE000BF2B11F460FF04C06F5F7F4F8F4F9F4F89
:100DF000089557FD9058440F551F59F05F3F71F00B
:100E00004795880F97FB991F61F09F3F79F0879571
:100E10000895121613061406551FF2CF4695F1DFFA
:100E200008C0161617061806991FF1CF869571058A
:100E3000610508940895E894BB2766277727CB01BE
:100E400097F908950E94AD0608F48FEF08950E9467
:100E50003A070C94E8060E94DA0638F00E94E10690
:100E600020F0952311F00C94D1060C94D706112490
:100E70000C941C070E94F90670F3959FC1F3950F1F
:100E800050E0551F629FF001729FBB27F00DB11D0E
:100E9000639FAA27F00DB11DAA1F649F6627B00D9E
:100EA000A11D661F829F2227B00DA11D621F739F87
:100EB000B00DA11D621F839FA00D611D221F749F95
:100EC0003327A00D611D231F849F600D211D822FDC
:100ED000762F6A2F11249F5750409AF0F1F0882303
:100EE0004AF0EE0FFF1FBB1F661F771F881F915030
:100EF0005040A9F79E3F510580F00C94D1060C9408
:100F00001C075F3FE4F3983ED4F386957795679589
:100F1000B795F795E7959F5FC1F7FE2B880F911D59
:100F20009695879597F908950E94AD06880B990BC1
:100F30000895A1E21A2EAA1BBB1BFD010DC0AA1F1A
:100F4000BB1FEE1FFF1FA217B307E407F50720F032
:100F5000A21BB30BE40BF50B661F771F881F991FAD
:100F60001A9469F760957095809590959B01AC01F6
:100F7000BD01CF010895EE0FFF1F881F8BBF0790A3
:0A0F8000F691E02D1994F894FFCFCC
:100F8A0000000000AC0116014301F901740152018D
:100F9A006601363738393A3B3C3D6E616E00696E00
:0A0FAA0066006F7666000D0A000075
:00000001FF
