:100000000C944A010C947B010C947B010C947B01B1
:100010000C947B010C947B010C947B010C947B0170
:100020000C947B010C947B010C947B010C947B0160
:100030000C947B010C947B010C947B010C947B0150
:100040000C947B010C947B010C947B010C947B0140
:100050000C947B010C947B010C947B010C94A50403
:100060000C947B010C946F040C9445040C947B015C
:100070000C947B010C947B010C947B010C947B0110
:100080000C947B010C947B010C947B010C947B0100
:100090000C947B010C947B010C947B010C947B01F0
:1000A0000C947B010C947B010C947B010C947B01E0
:1000B0000C947B010C947B010C947B010C947B01D0
:1000C0000C947B010C947B010C947B010C947B01C0
:1000D0000C947B010C947B010C947B010C947B01B0
:1000E0000C947B010C94F5030C9436040C941103CE
:1000F0000C940D030C9404030C9418040C9400034A
:100100000C941B030C94D9030C94B9010C941703A1
:100110000C94E1030C9422040C94D1030C94AA01D6
:100120000C940E040C94F6060C94FC020C94070339
:100130000C94E6020C94B3030C94A6030C94F802FE
:100140000C9429030C942C040C9413020C94250396
:100150000C941F030C94FF030C947D010C94C703B3
:100160000C94AE030C94DB010C94EB030C94600232
:100170000C94BD030C9437030C942D030C94CD0107
:100180000C9440040C9433030C94E1020000210011
:10019000240027002A002D00300033000101000058
:1001A000040107010A0100002200250028002B009D
:1001B0002E003100340002010000050108010B018E
:1001C00005050505070508080808020202020A0AD3
:1001D00008080404040401010101010101010303F1
:1001E000030303030303040707070C0C0C0C0C0C9C
:1001F0000C0C0202020206060606060606060B0B99
:100200000B0B0B0B0B0B01021020200808102040D9
:1002100010204080020102010804020101020408CA
:100220001020408080402010080402018004020158
:1002300080402010080402010804020101020408A1
:1002400010204080010204081020408000000A0BAA
:1002500002090C0D0E080703040100000000000055
:10026000000000000000000000000000000000008E
:10027000000000000000000012111000000000004B
:10028000000000000000000000000000000000006E
:100290000000F60611241FBECFEFD1E2DEBFCDBFB6
:1002A00000E00CBF12E0A0E0B2E0ECECF2E100E014
:1002B0000BBF02C007900D92AA31B107D9F722E017
:1002C000AAE1B2E001C01D92A03CB207E1F711E043
:1002D000CAE4D1E000E006C021970109802FFE01A9
:1002E0000E945C09C934D10780E00807A9F70E9481
:1002F000EF040C9464090C940000AF92BF92CF926B
:10030000DF92EF92FF920F931F93CF93DF936C01D5
:100310007B018B01040F151FEB015E01AE18BF08B6
:10032000C017D10759F06991D601ED91FC91019068
:10033000F081E02DC6011995892B79F7C501DF9170
:10034000CF911F910F91FF90EF90DF90CF90BF90D2
:10035000AF900895FC01538D448D252F30E0842FFC
:1003600090E0821B930B541710F0CF9608950197DD
:100370000895FC01918D828D981761F0A28DAE0FCA
:10038000BF2FB11D5D968C91928D9F5F9F73928F51
:1003900090E008958FEF9FEF0895FC01918D828D7D
:1003A000981731F0828DE80FF11D858D90E008954A
:1003B0008FEF9FEF0895FC01918D228D892F90E0A2
:1003C000805C9F4F821B91098F739927089583E268
:1003D00092E00E94DB0121E0892B09F420E0822FCA
:1003E0000895FC01A48DA80FB92FB11DA35ABF4FCA
:1003F0002C91848D90E001968F739927848FA68924
:10040000B7892C93A089B1898C91837080648C9377
:10041000938D848D981306C00288F389E02D808126
:100420008F7D80830895EF92FF920F931F93CF9358
:10043000DF93EC0181E0888F9B8D8C8D98131AC01F
:10044000E889F989808185FF15C09FB7F894EE8906
:10045000FF896083E889F989808183708064808363
:100460009FBF81E090E0DF91CF911F910F91FF90AE
:10047000EF900895F62E0B8D10E00F5F1F4F0F7356
:100480001127E02E8C8D8E110CC00FB607FCFACF11
:10049000E889F989808185FFF5CFCE010E94F101BD
:1004A000F1CFEB8DEC0FFD2FF11DE35AFF4FF082E2
:1004B0009FB7F8940B8FEA89FB8980818062CFCF48
:1004C000CF93DF93EC01888D8823B9F0AA89BB898B
:1004D000E889F9898C9185FD03C0808186FD0DC076
:1004E0000FB607FCF7CF8C9185FFF2CF808185FF97
:1004F000EDCFCE010E94F101E9CFDF91CF910895B8
:1005000080E090E0892B29F00E94E70181110E9490
:10051000000080E090E0892B49F080E090E0892B9A
:1005200029F00E94000081110E94000080E090E00C
:10053000892B49F080E090E0892B29F00E9400008F
:1005400081110E94000080E090E0892B49F080E05A
:1005500090E0892B29F00E94000081110C9400008A
:100560000895282F30E0F901E45BFD4F9491F901E3
:10057000EA5FFD4F449120543E4FF901249122231C
:1005800009F435C0992311F191509231F8F4E92F13
:10059000F0E08827E153FD4F8F4F0C945C09000376
:1005A0000403E102F802FC02E60207030D03110353
:1005B00017031B031F0325032903E6022D0333033F
:1005C0003703809180008F7780938000E22FF0E0E6
:1005D000EE0FFF1FEA55FE4FA591B4918FB7F89427
:1005E000EC91611148C040954E234C938FBF089504
:1005F000809180008F7DE8CF80918000877FE4CF5D
:1006000084B58F7784BDE2CF84B58F7DFBCF809199
:10061000B0008F778093B000D9CF8091B0008F7DEC
:10062000F9CF809190008F7780939000CFCF809109
:1006300090008F7DF9CF80919000877FF5CF8091DA
:10064000A0008F778093A000C1CF8091A0008F7D04
:10065000F9CF8091A000877FF5CF809120018F771F
:1006600080932001B3CF809120018F7DF9CF8091BD
:100670002001877FF5CF4E2BB8CFCF93DF9390E04B
:10068000FC01EA5FFD4F249180549E4FFC01849150
:100690008823D1F090E0880F991FFC01E457FE4FAA
:1006A000A591B491FC01EA55FE4FC591D491611119
:1006B0000EC09FB7F8948C91E22FE0958E238C9317
:1006C0002881E223E8839FBFDF91CF9108958FB700
:1006D000F894EC91E22BEC938FBFF6CF1F93CF935E
:1006E000DF93182FEB0161E00E943D03209739F45E
:1006F00060E0812FDF91CF911F910C94B102CF3F29
:10070000D10511F461E0F5CFE12FF0E0E45BFD4F9E
:10071000E491E150E23108F0B3C0F0E08827EC56F4
:10072000FC4F8F4F0C945C09A603AE03B303BD03CB
:10073000C7034004D103D903E103EB03F503FF032F
:100740000E041804400422042C04360484B5806886
:1007500084BDC7BDDF91CF911F91089584B580629C
:1007600084BDC8BDF7CF80918000806880938000F1
:10077000D0938900C0938800EDCF80918000806283
:1007800080938000D0938B00C0938A00E3CF809148
:100790008000886080938000D0938D00C0938C008F
:1007A000D9CF8091B00080688093B000C093B3002F
:1007B000D1CF8091B00080628093B000C093B4002C
:1007C000C9CF80919000806880939000D093990069
:1007D000C0939800BFCF809190008062809390007A
:1007E000D0939B00C0939A00B5CF80919000886011
:1007F00080939000D0939D00C0939C00ABCF8091DC
:10080000A00080688093A0008091A0008F7B8093DF
:10081000A000D093A900C093A8009CCF8091A00015
:1008200080628093A000D093AB00C093AA0092CFC7
:100830008091A00088608093A000D093AD00C09309
:10084000AC0088CF80912001806880932001D093F4
:100850002901C09328017ECF80912001806280937E
:100860002001D0932B01C0932A0174CF80912001E5
:10087000886080932001D0932D01C0932C016ACF12
:10088000C038D1050CF03ECF33CF1F920F920FB678
:100890000F9211240BB60F922F933F934F935F93B8
:1008A0006F937F938F939F93AF93BF93EF93FF9338
:1008B00083E292E00E94F101FF91EF91BF91AF912D
:1008C0009F918F917F916F915F914F913F912F9168
:1008D0000F900BBE0F900FBE0F901F9018951F9298
:1008E0000F920FB60F9211240BB60F922F938F9386
:1008F0009F93EF93FF93E0913302F0913402808154
:10090000E0913902F0913A0282FD1DC09081809100
:100910003C028F5F8F7320913D02821741F0E0917E
:100920003C02F0E0ED5DFD4F958F80933C02FF911E
:10093000EF919F918F912F910F900BBE0F900FBE53
:100940000F901F9018958081F2CF1F920F920FB6D3
:100950000F9211242F933F938F939F93AF93BF9345
:1009600080911F0290912002A0912102B091220259
:1009700030911E0223E0230F2D3758F50196A11D5B
:10098000B11D20931E0280931F0290932002A0931A
:100990002102B093220280911A0290911B02A09131
:1009A0001C02B0911D020196A11DB11D80931A0277
:1009B00090931B02A0931C02B0931D02BF91AF91B4
:1009C0009F918F913F912F910F900FBE0F901F908D
:1009D000189526E8230F0296A11DB11DD2CFCF9303
:1009E000DF93CDB7DEB761970FB6F894DEBF0FBEC9
:1009F000CDBF789484B5826084BD84B5816084BDA8
:100A000085B5826085BD85B5816085BD80916E00AC
:100A1000816080936E0010928100809181008260DD
:100A2000809381008091810081608093810080911A
:100A300080008160809380008091B1008460809309
:100A4000B1008091B00081608093B00080919100EE
:100A500082608093910080919100816080939100E9
:100A6000809190008160809390008091A1008260CD
:100A70008093A1008091A10081608093A10080916A
:100A8000A00081608093A00080912101826080930A
:100A900021018091210181608093210180912001B9
:100AA00081608093200180917A00846080937A0035
:100AB00080917A00826080937A0080917A008160D0
:100AC00080937A0080917A00806880937A001092F7
:100AD000C100E0913302F091340292E09083E09102
:100AE0002F02F09130021082E0913102F091320237
:100AF0008FEC808310923B02E0913702F091380234
:100B000086E08083E0913502F09136028081806139
:100B10008083E0913502F091360280818860808385
:100B2000E0913502F0913602808180688083E09107
:100B30003502F091360280818F7D8083988783E033
:100B4000898784E08A8785E08B8789E08C878AE0C3
:100B50008D8761E082E00E943D0361E083E00E94B6
:100B60003D0361E084E00E943D0361E083E00E9478
:100B70003D0361E089E00E943D0361E08AE00E945C
:100B80003D0382E192E09A83898388E08B8384E845
:100B900093E0A0E0B0E08C839D83AE83BF8302E14D
:100BA00012E08AE1E82E82E0F82E60E0F8018191FF
:100BB0008F010E943D03E016F106B9F7F12CE12CFC
:100BC000812C912C5401412C512C32018B818E159A
:100BD0001F0409F00CF46FC0E981FA81EE0DFF1DCE
:100BE0008081863308F0865320917B00982F98707F
:100BF000277F922B90937B008770806480937C008A
:100C000080917A00806480937A0080917A0086FDDA
:100C1000FCCF90917800809179006B81892798278B
:100C20008927092E000CAA0BBB0B0C811D812E817C
:100C30003F81081719072A073B07C8F570E090E0C5
:100C400080E00E94380820E030E040E85FE30E9446
:100C500023079B01AC0160E070E080E090E40E941B
:100C600090076E877F87888B998BB7010F2C000CBC
:100C7000880B990B0E943A089B01AC016E857F8519
:100C8000888999890E94CB0820E030E040E85FE342
:100C90000E9423079B01AC01C301B2010E942407FB
:100CA0002B013C01FFEF8F1A9F0AAF0ABF0A8FEF9B
:100CB000E81AF80A8BCF60E070E0CB018114910450
:100CC000A104B10451F0C501B4010E9438089B0190
:100CD000AC01C301B2010E94900720E030E040E087
:100CE0005FE30E94CB084B015C01AC019B0160E01B
:100CF00070E080E09FE30E9423076B017C0120E00D
:100D000030E040E05FE3C501B4010E9424074B01DD
:100D10005C010885198520E030E0A9010E94C60821
:100D200087FD48C061E0802F0E94B10260E0812F02
:100D30000E94B1020A851B8520E030E0A901C701AD
:100D4000B6010E94C60887FD3BC061E0802F0E946B
:100D5000B10260E0812F0E94B10220E030E0A901E1
:100D6000C501B4010E94C608181684F520E030E0E1
:100D70004FE753E4C501B4010E94CB080E9402086A
:100D80008C850E946E0320E030E0A901C701B60106
:100D90000E94C608181614F520E030E04FE753E42F
:100DA000C701B6010E94CB080E9402088D850E94EF
:100DB0006E0304CF60E0802F0E94B10261E0B7CFE4
:100DC00060E0802F0E94B10261E0C4CFC501B40190
:100DD000905820E030E04FE753E4CECFC701B60192
:100DE000905820E030E04FE753E4DCCFE3E2F2E05C
:100DF0001382128288EE93E0A0E0B0E084839583B2
:100E0000A683B78384E092E09183808385EC90E0B1
:100E10009587848784EC90E09787868780EC90E0C4
:100E2000918B808B81EC90E0938B828B82EC90E0B5
:100E3000958B848B86EC90E0978B868B118E128E2F
:100E4000138E148E08955058BB27AA270E943B0783
:100E50000C948C080E947E0838F00E94850820F0CF
:100E600039F49F3F19F426F40C947B080EF4E095B6
:100E7000E7FB0C947508E92F0E949D0858F3BA17F8
:100E8000620773078407950720F079F4A6F50C94A0
:100E9000BF080EF4E0950B2EBA2FA02D0B01B9015F
:100EA00090010C01CA01A0011124FF27591B99F0E0
:100EB000593F50F4503E68F11A16F040A22F232FEC
:100EC000342F4427585FF3CF469537952795A7953C
:100ED000F0405395C9F77EF41F16BA0B620B730BE3
:100EE000840BBAF09150A1F0FF0FBB1F661F771F54
:100EF000881FC2F70EC0BA0F621F731F841F48F409
:100F0000879577956795B795F7959E3F08F0B0CF91
:100F10009395880F08F09927EE0F97958795089578
:100F20000E94A4070C948C080E94850858F00E9427
:100F30007E0840F029F45F3F29F00C9475085111A8
:100F40000C94C0080C947B080E949D0868F39923B8
:100F5000B1F3552391F3951B550BBB27AA276217B5
:100F60007307840738F09F5F5F4F220F331F441FC2
:100F7000AA1FA9F335D00E2E3AF0E0E832D09150F6
:100F80005040E695001CCAF72BD0FE2F29D0660FE3
:100F9000771F881FBB1F261737074807AB07B0E826
:100FA00009F0BB0B802DBF01FF2793585F4F3AF02C
:100FB0009E3F510578F00C9475080C94C0085F3F73
:100FC000E4F3983ED4F3869577956795B795F795B2
:100FD0009F5FC9F7880F911D9695879597F908959A
:100FE000E1E0660F771F881FBB1F62177307840736
:100FF000BA0720F0621B730B840BBA0BEE1F88F745
:10100000E09508950E9409086894B1110C94C008F5
:1010100008950E94A50888F09F5798F0B92F992746
:10102000B751B0F0E1F0660F771F881F991F1AF0D3
:10103000BA95C9F714C0B13091F00E94BF08B1E071
:1010400008950C94BF08672F782F8827B85F39F070
:10105000B93FCCF3869577956795B395D9F73EF46C
:1010600090958095709561957F4F8F4F9F4F089514
:10107000E89409C097FB3EF4909580957095619532
:101080007F4F8F4F9F4F9923A9F0F92F96E9BB27E8
:101090009395F695879577956795B795F111F8CF64
:1010A000FAF4BB0F11F460FF1BC06F5F7F4F8F4FCF
:1010B0009F4F16C0882311F096E911C0772321F0C5
:1010C0009EE8872F762F05C0662371F096E8862F5D
:1010D00070E060E02AF09A95660F771F881FDAF7B4
:1010E000880F9695879597F9089597F99F6780E8F7
:1010F00070E060E008959FEF80EC089500240A946A
:101100001616170618060906089500240A941216E2
:101110001306140605060895092E0394000C11F415
:10112000882352F0BB0F40F4BF2B11F460FF04C0C2
:101130006F5F7F4F8F4F9F4F089557FD9058440F1B
:10114000551F59F05F3F71F04795880F97FB991F26
:1011500061F09F3F79F087950895121613061406E3
:10116000551FF2CF4695F1DF08C016161706180670
:10117000991FF1CF86957105610508940895E8944B
:10118000BB2766277727CB0197F908950E94380976
:1011900008F48FEF08950E94DE080C948C080E94DA
:1011A0007E0838F00E94850820F0952311F00C94F9
:1011B00075080C947B0811240C94C0080E949D08AB
:1011C00070F3959FC1F3950F50E0551F629FF0019A
:1011D000729FBB27F00DB11D639FAA27F00DB11DB3
:1011E000AA1F649F6627B00DA11D661F829F22273C
:1011F000B00DA11D621F739FB00DA11D621F839FC3
:10120000A00D611D221F749F3327A00D611D231F98
:10121000849F600D211D822F762F6A2F11249F57E6
:1012200050409AF0F1F088234AF0EE0FFF1FBB1FE9
:10123000661F771F881F91505040A9F79E3F5105A8
:1012400080F00C9475080C94C0085F3FE4F3983E5E
:10125000D4F3869577956795B795F795E7959F5F52
:10126000C1F7FE2B880F911D9695879597F90895E4
:10127000990F0008550FAA0BE0E8FEEF16161706A7
:10128000E807F907C0F012161306E407F50798F00F
:10129000621B730B840B950B39F40A2661F0232B28
:1012A000242B252B21F408950A2609F4A140A695A4
:1012B0008FEF811D811D0895EE0FFF1F881F8BBFCB
:0C12C0000790F691E02D1994F894FFCFF0
:1012CC000000000013027D01AA016002DB01B901DC
:0A12DC00CD01363738393A3B3C3D6E
:00000001FF
